{
  "contractName": "Insurance",
  "abi": [
    {
      "constant": true,
      "inputs": [],
      "name": "startDate",
      "outputs": [
        {
          "name": "",
          "type": "uint256"
        }
      ],
      "payable": false,
      "stateMutability": "view",
      "type": "function",
      "signature": "0x0b97bc86"
    },
    {
      "constant": true,
      "inputs": [],
      "name": "policyAmount",
      "outputs": [
        {
          "name": "",
          "type": "uint256"
        }
      ],
      "payable": false,
      "stateMutability": "view",
      "type": "function",
      "signature": "0x19f107dc"
    },
    {
      "constant": true,
      "inputs": [],
      "name": "status",
      "outputs": [
        {
          "name": "",
          "type": "uint8"
        }
      ],
      "payable": false,
      "stateMutability": "view",
      "type": "function",
      "signature": "0x200d2ed2"
    },
    {
      "constant": true,
      "inputs": [],
      "name": "user",
      "outputs": [
        {
          "name": "",
          "type": "address"
        }
      ],
      "payable": false,
      "stateMutability": "view",
      "type": "function",
      "signature": "0x4f8632ba"
    },
    {
      "constant": true,
      "inputs": [],
      "name": "claimAmt",
      "outputs": [
        {
          "name": "",
          "type": "uint256"
        }
      ],
      "payable": false,
      "stateMutability": "view",
      "type": "function",
      "signature": "0x74b6f66f"
    },
    {
      "constant": true,
      "inputs": [
        {
          "name": "",
          "type": "uint256"
        }
      ],
      "name": "procedures",
      "outputs": [
        {
          "name": "name",
          "type": "string"
        },
        {
          "name": "timestamp",
          "type": "uint256"
        }
      ],
      "payable": false,
      "stateMutability": "view",
      "type": "function",
      "signature": "0x8b4556ae"
    },
    {
      "constant": true,
      "inputs": [],
      "name": "hospital",
      "outputs": [
        {
          "name": "",
          "type": "address"
        }
      ],
      "payable": false,
      "stateMutability": "view",
      "type": "function",
      "signature": "0xaa2fedde"
    },
    {
      "constant": true,
      "inputs": [],
      "name": "endDate",
      "outputs": [
        {
          "name": "",
          "type": "uint256"
        }
      ],
      "payable": false,
      "stateMutability": "view",
      "type": "function",
      "signature": "0xc24a0f8b"
    },
    {
      "constant": true,
      "inputs": [],
      "name": "insuranceCompany",
      "outputs": [
        {
          "name": "",
          "type": "address"
        }
      ],
      "payable": false,
      "stateMutability": "view",
      "type": "function",
      "signature": "0xd78f51b9"
    },
    {
      "constant": true,
      "inputs": [],
      "name": "premium",
      "outputs": [
        {
          "name": "",
          "type": "uint256"
        }
      ],
      "payable": false,
      "stateMutability": "view",
      "type": "function",
      "signature": "0xe0a73a93"
    },
    {
      "inputs": [],
      "payable": false,
      "stateMutability": "nonpayable",
      "type": "constructor",
      "signature": "constructor"
    },
    {
      "constant": false,
      "inputs": [
        {
          "name": "_user",
          "type": "address"
        },
        {
          "name": "_insuranceCompany",
          "type": "address"
        },
        {
          "name": "_hospital",
          "type": "address"
        },
        {
          "name": "_policyAmount",
          "type": "uint256"
        },
        {
          "name": "_premium",
          "type": "uint256"
        },
        {
          "name": "_startDate",
          "type": "uint256"
        },
        {
          "name": "_endDate",
          "type": "uint256"
        }
      ],
      "name": "createIns",
      "outputs": [],
      "payable": false,
      "stateMutability": "nonpayable",
      "type": "function",
      "signature": "0x206c28d0"
    },
    {
      "constant": false,
      "inputs": [
        {
          "name": "_claimAmt",
          "type": "uint256"
        }
      ],
      "name": "makeClaim",
      "outputs": [],
      "payable": false,
      "stateMutability": "nonpayable",
      "type": "function",
      "signature": "0x1077f06c"
    },
    {
      "constant": false,
      "inputs": [
        {
          "name": "_name",
          "type": "string"
        },
        {
          "name": "_timestamp",
          "type": "uint256"
        }
      ],
      "name": "recordProcedure",
      "outputs": [],
      "payable": false,
      "stateMutability": "nonpayable",
      "type": "function",
      "signature": "0xd51ca0dd"
    },
    {
      "constant": true,
      "inputs": [],
      "name": "getProcedures",
      "outputs": [
        {
          "components": [
            {
              "name": "name",
              "type": "string"
            },
            {
              "name": "timestamp",
              "type": "uint256"
            }
          ],
          "name": "",
          "type": "tuple[]"
        }
      ],
      "payable": false,
      "stateMutability": "view",
      "type": "function",
      "signature": "0xc0a90d24"
    },
    {
      "constant": false,
      "inputs": [],
      "name": "claim",
      "outputs": [],
      "payable": false,
      "stateMutability": "nonpayable",
      "type": "function",
      "signature": "0x4e71d92d"
    },
    {
      "constant": false,
      "inputs": [],
      "name": "acceptClaim",
      "outputs": [],
      "payable": false,
      "stateMutability": "nonpayable",
      "type": "function",
      "signature": "0x1f7572ec"
    },
    {
      "constant": false,
      "inputs": [],
      "name": "rejectClaim",
      "outputs": [],
      "payable": false,
      "stateMutability": "nonpayable",
      "type": "function",
      "signature": "0x71ad9ca3"
    },
    {
      "constant": true,
      "inputs": [],
      "name": "getStatus",
      "outputs": [
        {
          "name": "",
          "type": "string"
        }
      ],
      "payable": false,
      "stateMutability": "view",
      "type": "function",
      "signature": "0x4e69d560"
    }
  ],
  "bytecode": "0x608060405234801561001057600080fd5b5061009c6000809054906101000a900473ffffffffffffffffffffffffffffffffffffffff16600160009054906101000a900473ffffffffffffffffffffffffffffffffffffffff16600260009054906101000a900473ffffffffffffffffffffffffffffffffffffffff166003546004546005546006546100a1640100000000026401000000009004565b6101ec565b732079614d8400dc3bf38e651fd6088bc1f2e596e96000806101000a81548173ffffffffffffffffffffffffffffffffffffffff021916908373ffffffffffffffffffffffffffffffffffffffff160217905550733f0c8ff6d7af3dd652206d63cd62ee97777d00fa600160006101000a81548173ffffffffffffffffffffffffffffffffffffffff021916908373ffffffffffffffffffffffffffffffffffffffff160217905550737ea79fb2723baf78d4f6a13c58e138263fdce7a3600260006101000a81548173ffffffffffffffffffffffffffffffffffffffff021916908373ffffffffffffffffffffffffffffffffffffffff16021790555060646003819055506002600481905550606460058190555060c86006819055506000600760006101000a81548160ff021916908360028111156101de57fe5b021790555050505050505050565b611ad6806101fb6000396000f3fe6080604052600436106100fc576000357c0100000000000000000000000000000000000000000000000000000000900463ffffffff1680630b97bc86146101015780631077f06c1461012c57806319f107dc146101555780631f7572ec14610180578063200d2ed214610197578063206c28d0146101c25780634e69d560146101eb5780634e71d92d146102165780634f8632ba1461022d57806371ad9ca31461025857806374b6f66f1461026f5780638b4556ae1461029a578063aa2fedde146102d8578063c0a90d2414610303578063c24a0f8b1461032e578063d51ca0dd14610359578063d78f51b914610382578063e0a73a93146103ad575b600080fd5b34801561010d57600080fd5b506101166103d8565b604051610123919061191a565b60405180910390f35b34801561013857600080fd5b50610153600480360361014e9190810190611173565b6103de565b005b34801561016157600080fd5b5061016a610479565b604051610177919061191a565b60405180910390f35b34801561018c57600080fd5b5061019561047f565b005b3480156101a357600080fd5b506101ac6105e3565b6040516101b9919061172d565b60405180910390f35b3480156101ce57600080fd5b506101e960048036036101e49190810190611081565b6105f6565b005b3480156101f757600080fd5b50610200610741565b60405161020d9190611748565b60405180910390f35b34801561022257600080fd5b5061022b610854565b005b34801561023957600080fd5b506102426109ed565b60405161024f91906116f0565b60405180910390f35b34801561026457600080fd5b5061026d610a12565b005b34801561027b57600080fd5b50610284610b33565b604051610291919061191a565b60405180910390f35b3480156102a657600080fd5b506102c160048036036102bc9190810190611173565b610b39565b6040516102cf92919061176a565b60405180910390f35b3480156102e457600080fd5b506102ed610c04565b6040516102fa91906116f0565b60405180910390f35b34801561030f57600080fd5b50610318610c2a565b604051610325919061170b565b60405180910390f35b34801561033a57600080fd5b50610343610d35565b604051610350919061191a565b60405180910390f35b34801561036557600080fd5b50610380600480360361037b919081019061111f565b610d3b565b005b34801561038e57600080fd5b50610397610f32565b6040516103a491906116f0565b60405180910390f35b3480156103b957600080fd5b506103c2610f58565b6040516103cf919061191a565b60405180910390f35b60055481565b6000809054906101000a900473ffffffffffffffffffffffffffffffffffffffff1673ffffffffffffffffffffffffffffffffffffffff163373ffffffffffffffffffffffffffffffffffffffff1614151561046f576040517f08c379a0000000000000000000000000000000000000000000000000000000008152600401610466906118da565b60405180910390fd5b8060088190555050565b60035481565b600160009054906101000a900473ffffffffffffffffffffffffffffffffffffffff1673ffffffffffffffffffffffffffffffffffffffff163373ffffffffffffffffffffffffffffffffffffffff16141515610511576040517f08c379a00000000000000000000000000000000000000000000000000000000081526004016105089061181a565b60405180910390fd5b60028081111561051d57fe5b600760009054906101000a900460ff16600281111561053857fe5b14151561057a576040517f08c379a0000000000000000000000000000000000000000000000000000000008152600401610571906118fa565b60405180910390fd5b600854600354036003819055506000600281111561059457fe5b600760009054906101000a900460ff1660028111156105af57fe5b5050600060035414156105e1576001600760006101000a81548160ff021916908360028111156105db57fe5b02179055505b565b600760009054906101000a900460ff1681565b732079614d8400dc3bf38e651fd6088bc1f2e596e96000806101000a81548173ffffffffffffffffffffffffffffffffffffffff021916908373ffffffffffffffffffffffffffffffffffffffff160217905550733f0c8ff6d7af3dd652206d63cd62ee97777d00fa600160006101000a81548173ffffffffffffffffffffffffffffffffffffffff021916908373ffffffffffffffffffffffffffffffffffffffff160217905550737ea79fb2723baf78d4f6a13c58e138263fdce7a3600260006101000a81548173ffffffffffffffffffffffffffffffffffffffff021916908373ffffffffffffffffffffffffffffffffffffffff16021790555060646003819055506002600481905550606460058190555060c86006819055506000600760006101000a81548160ff0219169083600281111561073357fe5b021790555050505050505050565b606060028081111561074f57fe5b600760009054906101000a900460ff16600281111561076a57fe5b14156107ad576040805190810160405280600781526020017f436c61696d6564000000000000000000000000000000000000000000000000008152509050610851565b600160028111156107ba57fe5b600760009054906101000a900460ff1660028111156107d557fe5b1415610818576040805190810160405280600881526020017f496e6163746976650000000000000000000000000000000000000000000000008152509050610851565b6040805190810160405280600681526020017f416374697665000000000000000000000000000000000000000000000000000081525090505b90565b6000809054906101000a900473ffffffffffffffffffffffffffffffffffffffff1673ffffffffffffffffffffffffffffffffffffffff163373ffffffffffffffffffffffffffffffffffffffff161415156108e5576040517f08c379a00000000000000000000000000000000000000000000000000000000081526004016108dc9061183a565b60405180910390fd5b600060028111156108f257fe5b600760009054906101000a900460ff16600281111561090d57fe5b148061093d575060028081111561092057fe5b600760009054906101000a900460ff16600281111561093b57fe5b145b151561097e576040517f08c379a00000000000000000000000000000000000000000000000000000000081526004016109759061179a565b60405180910390fd5b600354600854111515156109c7576040517f08c379a00000000000000000000000000000000000000000000000000000000081526004016109be9061189a565b60405180910390fd5b6002600760006101000a81548160ff021916908360028111156109e657fe5b0217905550565b6000809054906101000a900473ffffffffffffffffffffffffffffffffffffffff1681565b600160009054906101000a900473ffffffffffffffffffffffffffffffffffffffff1673ffffffffffffffffffffffffffffffffffffffff163373ffffffffffffffffffffffffffffffffffffffff16141515610aa4576040517f08c379a0000000000000000000000000000000000000000000000000000000008152600401610a9b9061185a565b60405180910390fd5b600280811115610ab057fe5b600760009054906101000a900460ff166002811115610acb57fe5b141515610b0d576040517f08c379a0000000000000000000000000000000000000000000000000000000008152600401610b04906118ba565b60405180910390fd5b6000600760006101000a81548160ff02191690836002811115610b2c57fe5b0217905550565b60085481565b600981815481101515610b4857fe5b9060005260206000209060020201600091509050806000018054600181600116156101000203166002900480601f016020809104026020016040519081016040528092919081815260200182805460018160011615610100020316600290048015610bf45780601f10610bc957610100808354040283529160200191610bf4565b820191906000526020600020905b815481529060010190602001808311610bd757829003601f168201915b5050505050908060010154905082565b600260009054906101000a900473ffffffffffffffffffffffffffffffffffffffff1681565b60606009805480602002602001604051908101604052809291908181526020016000905b82821015610d2c5783829060005260206000209060020201604080519081016040529081600082018054600181600116156101000203166002900480601f016020809104026020016040519081016040528092919081815260200182805460018160011615610100020316600290048015610d0a5780601f10610cdf57610100808354040283529160200191610d0a565b820191906000526020600020905b815481529060010190602001808311610ced57829003601f168201915b5050505050815260200160018201548152505081526020019060010190610c4e565b50505050905090565b60065481565b600260009054906101000a900473ffffffffffffffffffffffffffffffffffffffff1673ffffffffffffffffffffffffffffffffffffffff163373ffffffffffffffffffffffffffffffffffffffff16141515610dcd576040517f08c379a0000000000000000000000000000000000000000000000000000000008152600401610dc49061187a565b60405180910390fd5b600280811115610dd957fe5b600760009054906101000a900460ff166002811115610df457fe5b141515610e36576040517f08c379a0000000000000000000000000000000000000000000000000000000008152600401610e2d906117da565b60405180910390fd5b60055481111515610e7c576040517f08c379a0000000000000000000000000000000000000000000000000000000008152600401610e73906117fa565b60405180910390fd5b60065481101515610ec2576040517f08c379a0000000000000000000000000000000000000000000000000000000008152600401610eb9906117ba565b60405180910390fd5b6009604080519081016040528084815260200183815250908060018154018082558091505090600182039060005260206000209060020201600090919290919091506000820151816000019080519060200190610f20929190610f5e565b50602082015181600101555050505050565b600160009054906101000a900473ffffffffffffffffffffffffffffffffffffffff1681565b60045481565b828054600181600116156101000203166002900490600052602060002090601f016020900481019282601f10610f9f57805160ff1916838001178555610fcd565b82800160010185558215610fcd579182015b82811115610fcc578251825591602001919060010190610fb1565b5b509050610fda9190610fde565b5090565b61100091905b80821115610ffc576000816000905550600101610fe4565b5090565b90565b600061100f8235611a1b565b905092915050565b600082601f830112151561102a57600080fd5b813561103d61103882611962565b611935565b9150808252602083016020830185838301111561105957600080fd5b611064838284611a49565b50505092915050565b60006110798235611a2d565b905092915050565b600080600080600080600060e0888a03121561109c57600080fd5b60006110aa8a828b01611003565b97505060206110bb8a828b01611003565b96505060406110cc8a828b01611003565b95505060606110dd8a828b0161106d565b94505060806110ee8a828b0161106d565b93505060a06110ff8a828b0161106d565b92505060c06111108a828b0161106d565b91505092959891949750929550565b6000806040838503121561113257600080fd5b600083013567ffffffffffffffff81111561114c57600080fd5b61115885828601611017565b92505060206111698582860161106d565b9150509250929050565b60006020828403121561118557600080fd5b60006111938482850161106d565b91505092915050565b6111a5816119c9565b82525050565b60006111b68261199b565b808452602084019350836020820285016111cf8561198e565b60005b848110156112085783830388526111ea8383516116a4565b92506111f5826119bc565b91506020880197506001810190506111d2565b508196508694505050505092915050565b61122281611a37565b82525050565b6000611233826119b1565b808452611247816020860160208601611a58565b61125081611a8b565b602085010191505092915050565b6000611269826119a6565b80845261127d816020860160208601611a58565b61128681611a8b565b602085010191505092915050565b6000603582527f54686520706f6c696379206d75737420626520616374697665206f7220636c6160208301527f696d656420746f206d616b65206120636c61696d2e00000000000000000000006040830152606082019050919050565b6000602d82527f5468652074696d65206f662070726f6365647572652073686f756c642062656660208301527f6f726520656e6420646174652e000000000000000000000000000000000000006040830152606082019050919050565b6000603182527f54686520706f6c696379206d75737420626520636c61696d656420746f20726560208301527f636f726420612070726f6365647572652e0000000000000000000000000000006040830152606082019050919050565b6000603182527f5468652074696d65206f662070726f6365647572652073686f756c642062652060208301527f616674657220737461727420646174652e0000000000000000000000000000006040830152606082019050919050565b6000603082527f4f6e6c792074686520496e737572616e636520436f6d70616e792063616e206160208301527f63636570742074686520636c61696d2e000000000000000000000000000000006040830152606082019050919050565b6000602a82527f4f6e6c792074686520757365722063616e20636c61696d2074686520706f6c6960208301527f637920616d6f756e742e000000000000000000000000000000000000000000006040830152606082019050919050565b6000603082527f4f6e6c792074686520496e737572616e636520436f6d70616e792063616e207260208301527f656a6563742074686520636c61696d2e000000000000000000000000000000006040830152606082019050919050565b6000602982527f4f6e6c792074686520686f73706974616c2063616e207265636f72642061207060208301527f726f6365647572652e00000000000000000000000000000000000000000000006040830152606082019050919050565b6000603a82527f54686520636c61696d206d757374206265206c657373207468616e206f72206560208301527f7175616c20746f2074686520706f6c69637920616d6f756e742e0000000000006040830152606082019050919050565b6000601f82527f436c61696d206d757374206265206d61646520746f2072656a656374206974006020830152604082019050919050565b6000602882527f4f6e6c792074686520757365722063616e207365742074686520706f6c69637960208301527f20616d6f756e742e0000000000000000000000000000000000000000000000006040830152606082019050919050565b6000601f82527f436c61696d206d757374206265206d61646520746f20616363657074206974006020830152604082019050919050565b600060408301600083015184820360008601526116c1828261125e565b91505060208301516116d660208601826116e1565b508091505092915050565b6116ea81611a11565b82525050565b6000602082019050611705600083018461119c565b92915050565b6000602082019050818103600083015261172581846111ab565b905092915050565b60006020820190506117426000830184611219565b92915050565b600060208201905081810360008301526117628184611228565b905092915050565b60006040820190508181036000830152611784818561125e565b905061179360208301846116e1565b9392505050565b600060208201905081810360008301526117b381611294565b9050919050565b600060208201905081810360008301526117d3816112f1565b9050919050565b600060208201905081810360008301526117f38161134e565b9050919050565b60006020820190508181036000830152611813816113ab565b9050919050565b6000602082019050818103600083015261183381611408565b9050919050565b6000602082019050818103600083015261185381611465565b9050919050565b60006020820190508181036000830152611873816114c2565b9050919050565b600060208201905081810360008301526118938161151f565b9050919050565b600060208201905081810360008301526118b38161157c565b9050919050565b600060208201905081810360008301526118d3816115d9565b9050919050565b600060208201905081810360008301526118f381611610565b9050919050565b600060208201905081810360008301526119138161166d565b9050919050565b600060208201905061192f60008301846116e1565b92915050565b6000604051905081810181811067ffffffffffffffff8211171561195857600080fd5b8060405250919050565b600067ffffffffffffffff82111561197957600080fd5b601f19601f8301169050602081019050919050565b6000602082019050919050565b600081519050919050565b600081519050919050565b600081519050919050565b6000602082019050919050565b60006119d4826119f1565b9050919050565b60006003821015156119e957fe5b819050919050565b600073ffffffffffffffffffffffffffffffffffffffff82169050919050565b6000819050919050565b6000611a26826119f1565b9050919050565b6000819050919050565b6000611a42826119db565b9050919050565b82818337600083830152505050565b60005b83811015611a76578082015181840152602081019050611a5b565b83811115611a85576000848401525b50505050565b6000601f19601f830116905091905056fea265627a7a72305820a6828f71f488cf9164b2cd5e1a003868ea392f4bbe9566e12da35cf0420f1f5a6c6578706572696d656e74616cf50037",
  "source": "// SPDX-License-Identifier: GPL-3.0\r\npragma solidity >=0.5.0;\r\npragma experimental ABIEncoderV2;\r\n\r\ncontract Insurance {\r\n    // Define the entities\r\n    address public user;\r\n    address public insuranceCompany;\r\n    address public hospital;\r\n\r\n    // Define the policy details\r\n    uint public policyAmount;\r\n    uint public premium;\r\n    uint public startDate;\r\n    uint public endDate;\r\n\r\n    // Define the policy status\r\n    enum PolicyStatus {\r\n        Active,\r\n        Inactive,\r\n        Claimed\r\n    }\r\n    PolicyStatus public status;\r\n\r\n    //Define the amount that has to be claimed\r\n    uint public claimAmt;\r\n\r\n    // Define the list of medical procedures and their timestamps\r\n    struct Procedure {\r\n        string name;\r\n        uint timestamp;\r\n    }\r\n    Procedure[] public procedures;\r\n\r\n    // Define the constructor function to initialize the policy details\r\n    constructor() public {\r\n        createIns(\r\n            user,\r\n            insuranceCompany,\r\n            hospital,\r\n            policyAmount,\r\n            premium,\r\n            startDate,\r\n            endDate\r\n        );\r\n    }\r\n\r\n    function createIns(\r\n        address _user,\r\n        address _insuranceCompany,\r\n        address _hospital,\r\n        uint _policyAmount,\r\n        uint _premium,\r\n        uint _startDate,\r\n        uint _endDate\r\n    ) public {\r\n        user = 0x2079614D8400DC3bf38E651Fd6088BC1f2E596E9;\r\n        insuranceCompany = 0x3f0c8FF6d7aF3DD652206d63cd62eE97777D00fa;\r\n        hospital = 0x7EA79fb2723baF78D4F6a13C58e138263fDce7a3;\r\n        policyAmount = 100;\r\n        premium = 2;\r\n        startDate = 100;\r\n        endDate = 200;\r\n        status = PolicyStatus.Active;\r\n    }\r\n\r\n    // Define the function for the user to record the amount they want to claim\r\n    function makeClaim(uint _claimAmt) public {\r\n        require(msg.sender == user, \"Only the user can set the policy amount.\");\r\n        claimAmt = _claimAmt;\r\n    }\r\n\r\n    // Define the function for the hospital to record a medical procedure and its timestamp\r\n    function recordProcedure(string memory _name, uint _timestamp) public {\r\n        require(\r\n            msg.sender == hospital,\r\n            \"Only the hospital can record a procedure.\"\r\n        );\r\n        require(\r\n            status == PolicyStatus.Claimed,\r\n            \"The policy must be claimed to record a procedure.\"\r\n        );\r\n        require(\r\n            _timestamp > startDate,\r\n            \"The time of procedure should be after start date.\"\r\n        );\r\n        require(\r\n            _timestamp < endDate,\r\n            \"The time of procedure should before end date.\"\r\n        );\r\n        procedures.push(Procedure(_name, _timestamp));\r\n    }\r\n\r\n    function getProcedures() public view returns (Procedure[] memory) {\r\n        return procedures;\r\n    }\r\n\r\n    // Define the function for the user to make a claim\r\n    function claim() public {\r\n        require(\r\n            msg.sender == user,\r\n            \"Only the user can claim the policy amount.\"\r\n        );\r\n        require(\r\n            status == PolicyStatus.Active || status == PolicyStatus.Claimed,\r\n            \"The policy must be active or claimed to make a claim.\"\r\n        );\r\n        require(\r\n            claimAmt <= policyAmount,\r\n            \"The claim must be less than or equal to the policy amount.\"\r\n        );\r\n        status = PolicyStatus.Claimed;\r\n        // payable(user).transfer(policyAmount);\r\n    }\r\n\r\n    function acceptClaim() public {\r\n        require(\r\n            msg.sender == insuranceCompany,\r\n            \"Only the Insurance Company can accept the claim.\"\r\n        );\r\n        require(\r\n            status == PolicyStatus.Claimed,\r\n            \"Claim must be made to accept it\"\r\n        );\r\n        policyAmount = policyAmount - claimAmt;\r\n        status == PolicyStatus.Active;\r\n        if (policyAmount == 0) {\r\n            status = PolicyStatus.Inactive;\r\n        }\r\n    }\r\n\r\n    function rejectClaim() public {\r\n        require(\r\n            msg.sender == insuranceCompany,\r\n            \"Only the Insurance Company can reject the claim.\"\r\n        );\r\n        require(\r\n            status == PolicyStatus.Claimed,\r\n            \"Claim must be made to reject it\"\r\n        );\r\n        status = PolicyStatus.Active;\r\n    }\r\n\r\n    // Define the function to check the status of the policy\r\n    function getStatus() public view returns (string memory) {\r\n        if (status == PolicyStatus.Claimed) {\r\n            return \"Claimed\";\r\n        } else if (status == PolicyStatus.Inactive) {\r\n            return \"Inactive\";\r\n        } else {\r\n            return \"Active\";\r\n        }\r\n    }\r\n}\r\n",
  "sourcePath": "D:/Sem 6/Blockchain/Project/insurance-blockchain-app/contracts/Insurance.sol",
  "compiler": {
    "name": "solc",
    "version": "0.5.0+commit.1d4f565a.Emscripten.clang"
  },
  "schemaVersion": "3.0.1",
  "updatedAt": "2023-04-05T03:42:03.728Z",
  "devdoc": {
    "methods": {}
  },
  "userdoc": {
    "methods": {}
  }
}